{
  "contractName": "ApprovalContract",
  "abi": [
    {
      "constant": true,
      "inputs": [],
      "name": "approver",
      "outputs": [
        {
          "internalType": "address",
          "name": "",
          "type": "address"
        }
      ],
      "payable": false,
      "stateMutability": "view",
      "type": "function"
    },
    {
      "constant": true,
      "inputs": [],
      "name": "receiver",
      "outputs": [
        {
          "internalType": "address payable",
          "name": "",
          "type": "address"
        }
      ],
      "payable": false,
      "stateMutability": "view",
      "type": "function"
    },
    {
      "constant": true,
      "inputs": [],
      "name": "sender",
      "outputs": [
        {
          "internalType": "address",
          "name": "",
          "type": "address"
        }
      ],
      "payable": false,
      "stateMutability": "view",
      "type": "function"
    },
    {
      "constant": false,
      "inputs": [
        {
          "internalType": "address payable",
          "name": "_receiver",
          "type": "address"
        }
      ],
      "name": "deposit",
      "outputs": [],
      "payable": true,
      "stateMutability": "payable",
      "type": "function"
    },
    {
      "constant": true,
      "inputs": [],
      "name": "viewApprover",
      "outputs": [
        {
          "internalType": "address",
          "name": "",
          "type": "address"
        }
      ],
      "payable": false,
      "stateMutability": "pure",
      "type": "function"
    },
    {
      "constant": false,
      "inputs": [],
      "name": "approve",
      "outputs": [],
      "payable": false,
      "stateMutability": "nonpayable",
      "type": "function"
    }
  ],
  "bytecode": "0x608060405234801561001057600080fd5b5061040d806100206000396000f3fe6080604052600436106100555760003560e01c806312424e3f1461005a578063141a8dd81461007157806367e404ce146100c8578063d93ce89c1461011f578063f340fa0114610176578063f7260d3e146101ba575b600080fd5b34801561006657600080fd5b5061006f610211565b005b34801561007d57600080fd5b506100866102c8565b604051808273ffffffffffffffffffffffffffffffffffffffff1673ffffffffffffffffffffffffffffffffffffffff16815260200191505060405180910390f35b3480156100d457600080fd5b506100dd6102e0565b604051808273ffffffffffffffffffffffffffffffffffffffff1673ffffffffffffffffffffffffffffffffffffffff16815260200191505060405180910390f35b34801561012b57600080fd5b50610134610305565b604051808273ffffffffffffffffffffffffffffffffffffffff1673ffffffffffffffffffffffffffffffffffffffff16815260200191505060405180910390f35b6101b86004803603602081101561018c57600080fd5b81019080803573ffffffffffffffffffffffffffffffffffffffff169060200190929190505050610321565b005b3480156101c657600080fd5b506101cf6103b2565b604051808273ffffffffffffffffffffffffffffffffffffffff1673ffffffffffffffffffffffffffffffffffffffff16815260200191505060405180910390f35b7352fad959755a9103542baffe415cf99843523dcc73ffffffffffffffffffffffffffffffffffffffff163373ffffffffffffffffffffffffffffffffffffffff161461025d57600080fd5b600160009054906101000a900473ffffffffffffffffffffffffffffffffffffffff1673ffffffffffffffffffffffffffffffffffffffff166108fc479081150290604051600060405180830381858888f193505050501580156102c5573d6000803e3d6000fd5b50565b7352fad959755a9103542baffe415cf99843523dcc81565b6000809054906101000a900473ffffffffffffffffffffffffffffffffffffffff1681565b60007352fad959755a9103542baffe415cf99843523dcc905090565b6000341161032e57600080fd5b336000806101000a81548173ffffffffffffffffffffffffffffffffffffffff021916908373ffffffffffffffffffffffffffffffffffffffff16021790555080600160006101000a81548173ffffffffffffffffffffffffffffffffffffffff021916908373ffffffffffffffffffffffffffffffffffffffff16021790555050565b600160009054906101000a900473ffffffffffffffffffffffffffffffffffffffff168156fea265627a7a72315820824143925208ba498ce376a30db788db7fae37af0221f41db4333a5d4bc587df64736f6c63430005100032",
  "source": "pragma solidity ^0.5.16;\r\n\r\ncontract ApprovalContract {\r\n\r\n  address public sender;\r\n  address payable public receiver;\r\n  address public constant approver = 0x52fAD959755A9103542BaFFe415CF99843523dCC;\r\n\r\n  function deposit(address payable _receiver) external payable {\r\n    require(msg.value > 0);\r\n    sender = msg.sender;\r\n    receiver = _receiver;\r\n  }\r\n\r\n  function viewApprover() external pure returns (address) {\r\n    return(approver);\r\n  }\r\n\r\n  function approve() external {\r\n    require(msg.sender == approver);\r\n    receiver.transfer(address(this).balance);\r\n  }\r\n}\r\n",
  "sourcePath": "C:/Users/emile/Documents/Workspaces/Blockchain/LinkedInLearning/contracts/ApprovalContract.sol",
  "compiler": {
    "name": "solc",
    "version": "0.5.16+commit.9c3226ce.Emscripten.clang"
  },
  "schemaVersion": "3.3.4",
  "updatedAt": "2021-02-27T12:28:52.338Z",
  "networkType": "ethereum",
  "devdoc": {
    "methods": {}
  },
  "userdoc": {
    "methods": {}
  }
}